:020000040800F2
:1000000088070020C1010008EB190008C717000885
:10001000E9190008CD020008C31D00080000000017
:10002000000000000000000000000000111A00089D
:1000300091030008000000000D1A0008131A0008C0
:10004000DB010008DB010008DB010008DB01000820
:10005000DB0100080F1A0008DB010008DB010008C3
:10006000DB010008DB010008DB010008DB01000800
:10007000DB010008DB010008DB010008DB010008F0
:10008000DB010008DB010008DB010008FD020008BD
:10009000D1020008DB010008DB010008DB010008D9
:1000A000DB010008DB010008DB010008DB010008C0
:1000B000151B0008DB010008DB010008DB0100085C
:1000C000DB010008DB010008DB010008DB010008A0
:1000D000DB010008DB010008DB010008DB01000890
:1000E000DB010008DB010008DB010008DB01000880
:1000F000DB010008DB010008DB010008DB01000870
:10010000DB010008DB010008DB010008DB0100085F
:10011000DB010008DB010008211B0008DB010008EF
:10012000DB010008DB010008DB010008DB0100083F
:10013000DB010008DB010008DB010008DB0100082F
:10014000DB010008DB010008DB010008DB0100081F
:10015000DB010008DB010008DB010008DB0100080F
:10016000DB010008DB010008DB010008DB010008FF
:10017000DB010008DB010008DB01000800000000D3
:10018000DB010008DB010008DB010008DB010008DF
:10019000DB010008DB010008DB010008DB010008CF
:1001A0000000000000000000DB010008DFF80CD0B8
:1001B00000F07AF800480047E51E00088807002094
:1001C0000648804706480047FEE7FEE7FEE7FEE7F1
:1001D000FEE7FEE7FEE7FEE7FEE7FEE7C11A0008DE
:1001E000AD0100082DE9F05F0546002092469B46D0
:1001F00088460646814640241BE02846414647463D
:10020000224600F041F853465A46C01A914110D395
:1002100011461846224600F028F82D1A67EB01080F
:100220004F4622460120002100F01FF817EB00097D
:100230004E41201EA4F10104DFDC484631462A4627
:100240004346BDE8F09F40EA01039B0703D009E065
:1002500008C9121F08C0042AFAD203E011F8013BB2
:1002600000F8013B521EF9D27047202A04DB203AE5
:1002700000FA02F1002070479140C2F1200320FAF9
:1002800003F3194390407047202A04DB203A21FAF7
:1002900002F00021704721FA02F3D040C2F120029F
:1002A0009140084319467047064C074D06E0E06848
:1002B00040F0010394E8070098471034AC42F6D3AD
:1002C000FFF778FFF01F000810200008FEE700008D
:1002D00010B5074B074A0021074800F02AF90449E6
:1002E000044800F04DF8BDE81040034800F09EB906
:1002F0000C0000207C0000202C000020014800F0B1
:1003000095B900002C00002070B51A481849002447
:1003100001600321C0E901144FF40021C0E9034149
:100320004FF440114161047644768476C4760477B4
:100330000125457700F078FA18B14A210EA001F0A6
:1003400041FD0C48283001460562C0E906450461BC
:10035000046044604461283800F064F804210548D2
:1003600000F04CF8BDE87040024800F025BB0000EA
:10037000006400402C00002063616E2E63000000CA
:1003800002480168491C016070470000000000201D
:100390007047000070B5084C05466168491C6160F3
:1003A000A06801F0E7FD002805D0A060616800EBBF
:1003B000810040F8045C70BD0000002070B5044668
:1003C000DDE904060D460699A561C4E90723256009
:1003D000A260C4E9090621632061204600F005F807
:1003E0002046BDE87040FFF7D5BF10B50446C06A8F
:1003F00001F0C0FD002800D0E06210BD90F8202080
:10040000012A09D090F82020022A05D0416A41F43F
:100410008021416201207047006842690A434261BD
:100420000020704710B590F82020012A09D090F8DC
:100430002020022A05D0416A41F480214162012036
:1004400010BD3A48D0F8002242F00102C0F8002264
:10045000D0F8002222F47C52C0F80022D0F800220A
:100460004B6A42EA0322C0F800220B7D01229A4027
:10047000D0F81C329343C0F81C32CB69B3B9D0F822
:100480000C329343C0F80C328C894B6864F31F43E1
:100490004C6900EBC404C4F840320C890B6864F367
:1004A0001F434C6900EBC404C4F84432CB69012BF0
:1004B00016D1D0F80C321343C0F80C320C884B68BC
:1004C00064F31F434C6900EBC404C4F840320C8948
:1004D000CB6864F31F434C6900EBC404C4F8443296
:1004E0008B69002BD0F804320ED01343C0F80432CD
:1004F0000B69002BD0F8143208D01343C0F8143223
:10050000096A012904D008E09343EFE79343F5E734
:10051000D0F81C121143C0F81C12D0F8001221F0C0
:100520000101C0F80012002010BD0000006400406E
:10053000704730B590F82040012C07D090F820404B
:10054000022C03D0416A41F4802109E011B1012954
:1005500009D00CE00468E46807E0416A41F4001146
:100560004162012030BD04682469A407F5D04FF42E
:10057000D874056804EB01142D5915F00405956035
:1005800005682D5942D0ED08556005682C59C4F313
:100590004004D4604FF4DA74056804EB01142D595B
:1005A00005F00F05156105682D59C5F307259561FF
:1005B00005682C59240C54614FF4DC72046802EB7A
:1005C0000112A4581C700468A458240A5C700468C2
:1005D000A458240C9C700468A258120EDA704FF4D0
:1005E000DE72046802EB0112A4581C710468A4585E
:1005F000240A5C710468A458240C9C710468A258F5
:10060000120EDA7129B1012909D00DE06D0D1560C6
:10061000BBE70068C16841F02001C16004E00068E8
:10062000016941F020010161002030BD2DE9F05F3A
:100630000546006800244669D0F804908768D0F821
:100640000CB0D0F810A0D0F81880F10748D0F90706
:1006500014D001218160B80703D5284600F0D9F9EC
:100660000CE0780702D54FF4006407E0380702D5A4
:100670004FF4805402E0284600F0CAF9F80516D578
:1006800029684FF480708860B80503D5284600F0CB
:10069000C2F90CE0780502D544F4005407E03805AF
:1006A00002D544F4804402E0284600F0B3F9F80390
:1006B00016D529684FF480308860B80303D52846E2
:1006C00000F0ABF90CE0780302D544F4004407E0F5
:1006D000380302D544F4803402E0284600F09CF947
:1006E000300707D55FEACB6004D52968102044F4B1
:1006F0000074C86070074FF0080707D55FEA0B70F9
:1007000004D52868C760284600F050F9B00706D520
:100710002868C068800702D0284600F048F97006B3
:1007200007D55FEACA6004D52968102044F48064C4
:100730000861B00607D55FEA0A7004D5286807612A
:10074000284600F035F9F00606D5286800698007CC
:1007500002D0284600F02DF9B00308D55FEAC96041
:1007600005D5296810204860284600F023F9F003D9
:1007700007D55FEA097004D528684760284600F06D
:100780004DF9300446D55FEA497040D5F00504D5EF
:100790005FEAC87001D044F00104B00504D55FEAF7
:1007A000887001D544F00204700504D55FEA4870F2
:1007B00001D544F00404300529D518F0700F26D077
:1007C00008F07000402815D006DC102809D0202839
:1007D0000AD0302816D10AE050280ED0602811D156
:1007E0000EE044F008040DE044F010040AE044F088
:1007F000200407E044F0400404E044F0800401E0F9
:1008000044F480742868816921F07001816129684D
:1008100004204860002C05D0686A2043686228469E
:10082000FFF786FEBDE8F09F70B5040003D094F892
:10083000200010B104E0012070BD204600F082F8D5
:100840002068016821F00201016000F0D5F9054639
:10085000052604E000F0D0F9401B0A2811D82068D2
:1008600040688007F6D42068016841F0010101600A
:1008700000F0C2F905460BE000F0BEF9401B0A2863
:1008800006D9606A40F40030606284F82060D2E7E4
:1008900020684068C007EFD0207E012820680168EA
:1008A0003DD021F080010160607E01282068016850
:1008B00038D021F040010160A07E01282068016845
:1008C00033D021F020010160E07E0128206801681A
:1008D0002ED041F010010160207F012820680168BE
:1008E00029D021F008010160607F0128206801689B
:1008F00024D021F004010160D4E902010843D4E9C5
:100900000412114308436168491E08432168C86105
:1009100000206062012084F82000002070BD41F0BA
:100920008001C0E741F04001C5E741F02001CAE77E
:1009300021F01001CFE741F00801D4E741F00401B4
:10094000D9E7000000B50068154987B0884225D175
:1009500014480021026842F000720260006802221E
:1009600000F0007005900320CDE90210CDE90002EF
:100970000920049069460C4800F052F80022114604
:10098000132000F0D7F9132000F0C8F9002201214C
:10099000142000F0CFF9142000F0C0F907B000BD1A
:1009A0000064004040380240000C0240704770472D
:1009B000704770477047000070B5044690F82000FB
:1009C000012804D0606A40F40020606218E0022030
:1009D00084F820002068016821F00101016000F026
:1009E0000BF905460EE000BF00F006F9401B0A288F
:1009F00008D9606A40F400306062052084F8200065
:100A0000012070BD20684068C007EDD1606270BDF4
:100A100070477047704770477047704770470000D5
:100A20002DE9F84FDFF890B100224FF001084FF0A8
:100A3000030A4FF00F090BF1040E00BF0B6808FA10
:100A400002F42340A3426ED14D68022D01D0122D35
:100A50000ED1D50800EB850CDCF820505607F70EB8
:100A600009FA07F6B5430E69BE402E43CCF8206064
:100A7000066855000F790AFA05FC07F0030726EA15
:100A80000C06AF40374307604E68012E05D0022E9A
:100A900003D0112E01D0122E0ED18768CE6827EA1E
:100AA0000C07AE403E4386604668A6430C79C4F30B
:100AB0000014944034434460C4688E6824EA0C04F3
:100AC000AE402643C6604C68E4006FD53B4C2568B9
:100AD00045F480452560246822F0030504F4804431
:100AE0000094374C2E19D6F8084895072F0F09FAAD
:100AF00007F5AC43334DA84201D100252EE0324D1D
:100B0000A84201D1012529E0304DA84201D102259A
:100B100024E02F4DA84201D103251FE02D4DA8420E
:100B200002D104251AE041E02B4DA84201D1052550
:100B300014E02A4DA84201D106250FE0284DA84215
:100B400001D107250AE0274DA84201D1082505E07B
:100B5000254DA84201D1092500E00A25BD402543C5
:100B6000C6F80858DBF800405D464E689C43F60323
:100B700000D51C432C60DEF8004075464E689C434F
:100B8000B60300D51C432C600B4D08352C684E680D
:100B90009C43F60200D51C432C60074D0C352C6895
:100BA0004E689C43B60200D51C432C60521C102A90
:100BB000FFF444AFBDE8F88F003C014044380240E8
:100BC00000300140000002400004024000080240E2
:100BD000000C0240001002400014024000180240C5
:100BE000001C024000200240002402400AB1816142
:100BF00070470904FBE70000014880687047000067
:100C00001400002002488168027811448160704716
:100C1000140000200B4810B5016841F40071016018
:100C2000016841F480610160016841F480710160F4
:100C3000032000F09FF8002000F006F800F024F8F0
:100C4000002010BD003C024070B50D4D04464FF42D
:100C50007A712878B1FBF0F00A490968B1FBF0F02D
:100C600000F005FB48B9102C07D200222146501E87
:100C700000F060F800206C6070BD012070BD0000C5
:100C80001400002020000020234808B5016841F42A
:100C900080410160006800F4804000901E48001F01
:100CA000016841F080510160006800F080500090C0
:100CB000032000F05FF8002211466FF00B0000F0F7
:100CC00039F8002211466FF00A0000F033F80022D4
:100CD00011466FF0090000F02DF800221146501F58
:100CE00000F028F800221146101F00F023F800221F
:100CF0001146901E00F01EF800221146501E00F012
:100D000019F800221146052000F014F8BDE808404B
:100D1000052000F003B800004438024000F01F0234
:100D2000012191404009800000F1E020C0F800114D
:100D300070470000F0B40E4B1B680C46C3F302234F
:100D4000C3F10705042D00D90425191D072901D277
:100D5000002300E0DB1E012606FA05F1491E2140B2
:100D600099409E40761E16403143F0BC00F03EBED6
:100D70000CED00E0064900F0070208684FF6FF039B
:100D8000184040EA0220034A104308607047000000
:100D90000CED00E00000FA052DE9F0470E460500D5
:100DA00065D0DFF81481D8F80000F7B200F00F002A
:100DB000B04207D288F80070D8F8000000F00F00A9
:100DC000B04254D128683D4C810712D5400703D565
:100DD000206840F4E05020602878000703D52068A0
:100DE00040F4604020602068A96820F0F0000843CB
:100DF00020602878C0072DD030496868083901285C
:100E000012D0022813D0032811D0096889070029BD
:100E10002DDA216821F0030101432160FFF7ECFE88
:100E2000814641F2883A0EE009688903EFE70968D4
:100E30008901ECE7FFF7E0FEA0EB0901514502D97B
:100E40000320BDE8F0872068696800F00C00B0EB73
:100E5000810FEFD1D8F80010404601F00F01B142E8
:100E600007D90770006800F00F00B04201D00120E0
:100E7000E7E72878400705D52068E96820F4E050C6
:100E8000084320602878000706D52068296920F4E7
:100E9000604040EAC100206000F01CF82168084A68
:100EA000C1F30311515CC840064908600020FFF7F8
:100EB000CBFE0020C5E70000003C0240083802409D
:100EC000E01F000820000020014800687047000073
:100ED00020000020154810B5006810F00C021448DE
:100EE00013D01449042A0FD0082A0ED10F4C241F06
:100EF0002268236802F03F025B0207D52068C0F336
:100F00008810A0FB010106E0084610BD2168C1F36E
:100F10008811A1FB00010023FFF764F92168C1F3E8
:100F20000141491C4900B0FBF1F010BD08380240F6
:100F30000024F400001BB7002DE9F84F050076D01F
:100F40002878DFF8F8B2BE4CC00749D0DBF80010B3
:100F50005846C1F38101012908D00068C0F381001F
:100F600002280AD1201D0068400206D520688003AF
:100F700036D568680028E2D032E06868B0F5803F76
:100F800010D0B0F5A02F206810D020F48030206061
:100F9000206820F4802020606868A0B1FFF72CFE54
:100FA00006460CE0206840F48030F4E740F48020EE
:100FB0002060F7E7FFF720FE801B642873D82068C5
:100FC0008003F7D50CE0FFF717FE064605E000BFEB
:100FD000FFF712FE801B6428F0D820688003F7D446
:100FE0002878DFF8608280074FF000093ED5DBF8F3
:100FF0000010584611F00C0F09D00068C0F38100B2
:1010000002280BD18D48001F0068400206D42068DA
:10101000800715D5E868012809D111E0E868B8B162
:101020000120C8F80000FFF7E7FD064605E002E1F1
:10103000FFF7E2FD801B0228C0D820688007F7D5A3
:101040002068296920F0F80040EAC10020600DE026
:10105000C8F80090FFF7D0FD064604E0FFF7CCFD8E
:10106000801B02281FD820688007F7D42878000743
:1010700022D5724E744869696C3671B101210160E4
:10108000FFF7BAFD074604E0FFF7B6FDC01B0228D4
:1010900009D830688007F7D50EE0C0F80090FFF758
:1010A000ABFD074605E083E0FFF7A6FDC01B022865
:1010B0007ED830688007F7D42878400768D5DFF8F5
:1010C0007CA100270AF1380ADAF80000C0000BD42E
:1010D000DAF8001041F08051CAF80010DAF8000088
:1010E000012700F080500090584E3068C00510D4A1
:1010F000306840F480703060FFF77EFD009005E0BE
:10110000FFF77AFD0099401A022851D83068C005CF
:10111000F6D54A4EA868683601280FD005283068F1
:1011200010D020F001003060306820F00400306002
:10113000A868B8B1FFF760FD00900FE0306840F09C
:101140000100F4E740F004003060F7E7FFF754FDDA
:101150000099411A41F28830814264D83068800792
:10116000F4D50EE0FFF748FD009007E0FFF744FDDF
:101170000099411A41F28830814254D83068800782
:10118000F4D42FB1DAF8001021F08051CAF8001021
:10119000A869C0B3DBF80010C1F3810102294AD06D
:1011A0000228484607D0C8F86000FFF725FD00E098
:1011B00039E005463AE04746C8F86000FFF71CFDF5
:1011C000064604E0FFF718FD801B02282BD8206894
:1011D0008001F7D4D5E907010843A96A1C4A4908E8
:1011E00002EB01416A6A41EA8211084395F82C102A
:1011F00040EA01611148001F016001203866FFF7D5
:10120000FBFC054605E014E0FFF7F6FC401B022856
:1012100009D820688001F7D50BE000BFFFF7ECFC90
:10122000401B022802D90320BDE8F88F2068800106
:10123000F4D40020F8E70120F6E700000838024067
:101240000038024000004742800E474200700040D4
:101250000000FFFF4FF0E0210428086903D020F0D0
:1012600004000861704740F00400FAE7704710B5C9
:10127000401EB0F1807F01D3012010BD4FF0E0246B
:1012800060610F21601700F0B1FB0020A061072012
:101290002061002010BD10B5FFF7E8FF10BD7047BA
:1012A000704730B590F83820012A20D0012280F80C
:1012B0003820022380F8393003685C6824F0700419
:1012C0005C6003685C680D682C435C6003689C6824
:1012D00024F080049C6003689C6849680C439C600F
:1012E00080F83920002180F83810084630BD0220EF
:1012F00030BD10B5040003D094F8390010B107E0F8
:10130000012010BD002084F83800204600F00CF8C1
:10131000022084F83900211D206800F007FC01201C
:1013200084F83900002010BD08B501681448B1F1F7
:10133000804F14D0134A914220D1016841F010012E
:1013400001600068002200F0100000901146362075
:10135000FFF7F0FC3620BDE80840FFF7DFBC01686E
:1013600041F0010101600068002200F001000090DE
:1013700011461C20FFF7DEFC1C20ECE708BD000036
:1013800040380240001000400168CA6842F0010283
:10139000CA600068016841F00101016000207047E7
:1013A00070B5044690F83800012817D0012584F85C
:1013B0003850022084F839002068826822F07702D1
:1013C00022F47F4282600868502837D00DDC202844
:1013D00059D005DC88B3102841D151E0022070BDFE
:1013E000302853D040283AD13FE060282ED07028D2
:1013F0000BD0B0F5805F03D0B0F5005F2FD110E0C7
:101400002068816821F0070115E0CB68D1E901214E
:10141000206800F0EBFB2168886840F07700886066
:101420001DE0CB68D1E90121206800F0DFFB2068D6
:10143000816841F48041816011E01EE0CA6849681A
:10144000206800F09BFC5021206806E0CA684968CB
:10145000206800F0A4FC6021206800F0D1FB84F833
:101460003950002084F8380070BDCA684968206887
:1014700000F084FC40212068EFE700212068ECE7C1
:1014800010212068E9E720212068E6E73021206864
:10149000E3E7704770B50446006801694FF0000546
:1014A000C943890715D4C168C943890711D4E91E06
:1014B000016101202076206880698007204602D0E3
:1014C000FFF7E7FF04E000F0D7F8204600F078F9D6
:1014D000257620680169C943490717D4C168C94303
:1014E000490713D46FF004010161022020762068BF
:1014F000806910F4407F204602D0FFF7CAFF04E065
:1015000000F0BAF8204600F05BF925762068016902
:10151000C943090716D4C168C943090712D46FF03B
:1015200008010161042020762068C06980072046F8
:1015300002D0FFF7AEFF04E000F09EF8204600F076
:101540003FF9257620680169C943C90617D4C168E7
:10155000C943C90613D46FF0100101610820207639
:101560002068C06910F4407F204602D0FFF791FF49
:1015700004E000F081F8204600F022F9257620688A
:101580000169C943C90708D1C168C943C90704D162
:10159000891E0161204600F014F920680169C943E1
:1015A000090609D4C168C943090605D46FF0800152
:1015B00001612046FFF773FE20680169C9434906AF
:1015C00009D4C168C943490605D46FF040010161DF
:1015D000204600F0F7F820680169C94389060BD45A
:1015E000C168C943890607D46FF020010161204614
:1015F000BDE87040FFF754BE70BD000070B50168D3
:1016000000250224174886B0B1F1804F0CD0164A4D
:1016100091421AD120218DE83200CDE90354694668
:10162000FFF7FEF906B070BD08218DE832000126F3
:10163000CDE903566946FFF7F3F90D208DE8310037
:10164000CDE9035669460948EAE709488142E9D1EC
:101650004FF410708DE831000920CDE90350694640
:101660000448DDE70004024000040040000002409E
:1016700000180040001C0240704770B5044690F806
:1016800038000D4601280DD0012684F8386002206C
:1016900084F8390042B1042A18D0082A2AD00C2A2A
:1016A0004DD139E0022070BD206800F0B1FA206809
:1016B000816941F0080181612068816921F004019C
:1016C0008161206881692A69114311E0206800F076
:1016D000CBFA2068816941F40061816120688169E9
:1016E00021F480618161206881692A6941EA0221CF
:1016F000816124E0206800F0E9FA2068C16941F0C6
:101700000801C1612068C16921F00401C16120683C
:10171000C1692A69114311E0206800F007FB2068C5
:10172000C16941F40061C1612068C16921F480612F
:10173000C1612068C1692A6941EA0221C16184F856
:101740003960002084F8380070BD10B5040003D063
:1017500094F8390010B107E0012010BD002084F892
:101760003800204600F00CF8022084F83900211DD2
:10177000206800F0DBF9012084F83900002010BD5A
:1017800008B50C4A01680C48914207D1016841F044
:1017900002010160006800F0020009E0074A91427E
:1017A00007D1016841F040010160006800F040008D
:1017B000009008BD0004004040380240001800407E
:1017C000704770477047FEE70E4810B50C4901603E
:1017D0000321416000214FF400228160C0E903121F
:1017E0004FF440124261017641768176C1760177ED
:1017F00001214177FFF718F8002800D0FEE710BD5F
:10180000006400402C00002070B51F4886B0002402
:10181000016841F002010160016801F002010591D7
:10182000016841F008010160016801F008010591BB
:10183000016841F080010160016801F080010591BB
:10184000016841F001010160016801F001010591A9
:10185000016841F02001016000680C4E00F020009A
:101860004FF480450590002229463046FFF7BEF927
:1018700001200095CDE90104694630460394FFF745
:10188000CFF806B070BD00003038024000140240AE
:1018900010B5154888B01349016053210024C0E9F0
:1018A000011444F61F61C0E90314FFF74EFF00B1B5
:1018B000FEE76020CDE900040294002269460A4850
:1018C0000494FFF7DAFE00B1FEE7042269460648F9
:1018D000FFF7D3FE00B1FEE70348FFF78FFE08B025
:1018E00010BD0000001800404C01002010B5274832
:1018F0008EB04FF0804101604AF210410024C0E9EF
:1019000001142821C0E90314FFF7F3FC00B1FEE73E
:101910004FF48050079007A91C48FFF741FD00B124
:10192000FEE71A48FFF711FF00B1FEE70B940BA981
:1019300016480C94FFF7B5FC00B1FEE7602000905C
:101940000220CDE901040022694610480494FFF703
:1019500094FE00B1FEE7042269460C480194FFF7AB
:101960008CFE00B1FEE7082269460848FFF785FEB5
:1019700000B1FEE70C2269460448FFF77EFE00B185
:10198000FEE70248FFF73AFE0EB010BD98000020B7
:1019900010B514488AB01249016053210024C0E9EF
:1019A0000114C4600461FFF7D0FE00B1FEE70794A4
:1019B00007A90C480894FFF774FC00B1FEE760200B
:1019C000CDE9000402940422694606480494FFF716
:1019D00054FE00B1FEE70348FFF710FE0AB010BD49
:1019E00000040040D4000020FEE770470907090EFC
:1019F000002806DA00F00F0000F1E02080F8141D46
:101A0000704700F1E02080F800147047704770477D
:101A1000704710B5FFF7F6F8BDE81040FFF73BBC84
:101A200030B5254893B00025016841F08051016030
:101A3000006800F0805011902048016841F4404156
:101A400001600068022400F44040119001200090E1
:101A5000000401908001CDE9064006200890A820EE
:101A6000CDE9090404200B906846FFF765FA00B140
:101A7000FEE70CA90F2081E831004FF4A0500F9031
:101A80004FF48050109005210CA8FFF785F900B1A4
:101A9000FEE7FFF719FA4FF47A71B0FBF1F0FFF7A8
:101AA000E6FB0420FFF7D6FB00221146501EFFF78D
:101AB00041F913B030BD00004038024000700040D2
:101AC0001048016841F4700101600F48016841F05D
:101AD000010101600C4A00210832116002680B4BC1
:101AE0001A400260031D0A4A1A60026822F480222A
:101AF000026005480C3001600249580680390860D0
:101B00007047000088ED00E000380240FFFFF6FE5D
:101B1000103000240148FFF7BDBC000098000020F1
:101B20000148FFF7B7BC000010010020F0B50268C3
:101B3000234B244D244E254F254C4FF0804C98428A
:101B400009D0604507D0A84205D0B04203D0B842C2
:101B500001D0A04204D122F0700E4A6842EA0E027F
:101B600098421BD0604519D0A84217D0B04215D07A
:101B7000B84213D0A04211D0164DA8420ED0164D37
:101B8000A8420BD0154DA84208D0154DA84205D04B
:101B9000144DA84202D0144DA84203D122F440753E
:101BA000CA682A4302608A68C2620A6882629842EE
:101BB00001D0A04201D10969016301214161F0BD59
:101BC000000001400004004000080040000C0040FC
:101BD0000004014000400140004401400048014031
:101BE00000180040001C00400020004010B5846830
:101BF00042EA032224F47F440A432243826010BD58
:101C0000826822F070020A4342F007018160704747
:101C100030B5026A22F001020262026A43688469F6
:101C20000D6824F07304254322F002048A682243DD
:101C30000B4CA04202D00B4CA0420BD122F0080466
:101C4000CA6823F4407322434C6922F004021C4307
:101C50008B6923434360856149684163026230BDFB
:101C6000000001400004014030B5026A22F0100279
:101C70000262026A436884690D6824F4E64444EA17
:101C800005248D6822F0200242EA05120D4DA8427B
:101C900002D00D4DA8420ED1CD6822F0800242EA5A
:101CA00005124D6923F4406343EA85038D6922F0F0
:101CB000400243EA850343608461496881630262AC
:101CC00030BD0000000001400004014030B5026A50
:101CD00022F480720262036A4268C46923F40073CA
:101CE00024F073050C682C438D6843EA05230D4DE1
:101CF000A84202D00C4DA8420ED1CD6823F4006357
:101D000043EA05234D6922F4405242EA05128D69E7
:101D100023F4806342EA05124260C4614968C163EA
:101D2000036230BD000001400004014030B5026A8A
:101D300022F480520262046A4268C3690D6823F487
:101D4000E64343EA05238D6824F4005444EA05344D
:101D5000084DA84202D0084DA84204D14D6922F492
:101D6000804242EA85124260C361496801640462AC
:101D700030BD0000000001400004014010B5036ABE
:101D8000046A24F001040462846924F0F00444EA43
:101D9000021423F00A020A438461026210BD10B5E6
:101DA000036A23F0100303628369046A23F4704317
:101DB00043EA023224F0A00343EA01118261016286
:101DC00010BDFEE7FEE7000030B528B1144C031F3C
:101DD000002021680A4605E0084630BD9A4203D833
:101DE00010465268002AF9D1002800D041680BD073
:101DF0000468A3EB0005A54204D11B681C440346FC
:101E0000046002E0436000E023603AB11C68D51A28
:101E1000A54203D115682C441C6052685A6030BD3D
:101E2000240000202DE9F04782460F4C10480D4E4B
:101E30000E4F001B4FF0000820F007054FF001097E
:101E400000221146504600F025F8002802D13068E3
:101E500010B10020BDE8F0873C60C4E90058C6F826
:101E60000090EDE7280000208C01002024000020D5
:101E70008803002002E008C8121F08C1002AFAD116
:101E800070477047002001E001C1121F002AFBD1FA
:101E9000704700002DE9F0410B3020F00706104D8F
:101EA00019E02068B04215D3B0420AD9871B201D23
:101EB000D4F80480FEF7C7F9A019C0E900782860BB
:101EC00004E060682860201DFEF7BDF9201D266033
:101ED000BDE8F081251D2C68002CE2D10020F7E739
:101EE0002400002090B0FEF795FEFFF799FDFFF764
:101EF0008BFCFFF769FCFFF7F9FCFFF7C9FC1C48F6
:101F00001A49002401602A21C0E901144FF4FA6142
:101F1000C160FFF7EEF900B1FEE70094694614488E
:101F20000194FFF7BEF900B1FEE7FFF731FD10485D
:101F30007838FFF70AFC0E483C30FFF706FCFEF746
:101F4000E3F90B48FFF720FA09487838FFF71CFA45
:101F5000082040F20121CDE9000100238101029017
:101F60001A4603A8FEF72AFAFEE700000010004018
:101F7000100100202DE9F04704008A4616D054F8DD
:101F8000047CD4F800903E1F564500D956462046A2
:101F9000FFF71AFF05468846324621465046FFF7AE
:101FA00079FF40B1C0F80090BDE8F087BDE8F04788
:101FB0000846FFF737BF44E9017955B129686A1827
:101FC000211F8A4202D9611B091F2960C5F80480BC
:101FD000EAE7024AC2F80080E6E700002400002099
:101FE00000000000000000000102030406070809C9
:101FF00010200008000000202C000000741E0008C3
:102000003C2000082C0000205C070000841E000813
:1020100000000000000000000000000000000000C0
:10202000000000000100000010000000000000009F
:0C2030000024F40000000000000000008C
:04000005080001AD41
:00000001FF
